:020000041004E6
:1000000000600020BD9904109F1B04100995041086
:10001000AA5555AA45554C420000000000000000BA
:100020000000000000000000000000005329041040
:100030000000000000000000972904100D95041036
:10004000FB340410275D04105B650410B7650410D1
:10005000000000000000000000000000936A04108F
:10006000DB6A0410B3720410E776041057790410A9
:10007000777F0410194A0410638104101795041047
:1000800041950410D3810410FB8504107F86041071
:100090000B880410B78A04105F8C0410AF90041012
:1000A000D390041097920410F79204105396041002
:1000B0000000000000000000000000000000000040
:1000C00010B57F490A8812180A807E4A0B88148866
:1000D000A34203D10023138012880A8010BDFDB50E
:1000E00084B00C006846858A0CA8007869460870C0
:1000F00028007449098880B2884201D100202CE090
:1001000004267148290089B24018029001AF3200DC
:100110000299380001F05AFB68460078002812D195
:1001200001A8C1786A46127C91420CD12100C9B263
:10013000062904D021008078C9B2814203D10698F3
:10014000002809D006E0684680882D1800206946FE
:100150000870CDE706980580012007B0F0BDFFB517
:1001600085B00400607B002805D155480588002033
:1001700008A9087000E0E58908A80078009001ABA4
:100180002A0092B201212078FFF7A9FF002801D1AF
:10019000042020E00120607368468088E08106200A
:1001A0000290B44E684680883018009003AF029ADF
:1001B0000099380001F00AFB684680883018801DDD
:1001C0000699086003A80188891F079A11800079A1
:1001D0000E990870002009B0F0BDF1B584B0384820
:1001E00000886946888000263000C0B2009001ABCC
:1001F0006846828806216846007CFFF770FF002869
:1002000028D00425304C68468088201803906F461B
:100210002A000399380001F0D9FA00F0E3FD69469D
:100220000988471A68468088201869460988401856
:1002300002906846808824183A000299200001F054
:10024000F1FA204801886A461288891A0180012043
:100250000600C9E705B0F0BDC9B2CA4A514380B231
:10026000800880B21B224243881825307047F8B5B9
:1002700006000D00287800281FD001210020FFF77C
:10028000EBFF0700EFF3108472B6380001F0DAFAE2
:1002900000280ED0012332780021BB4801F096FBE4
:1002A00084F310883078401C30702878401E287005
:1002B000E0E784F31088072000E00020F2BD000092
:1002C000C80B0020CA0B0020BC07002010B502009C
:1002D0001368002010815081908190731900087874
:1002E000FF2806D150681C00001B001F90810020D1
:1002F0001BE00878FE2803D11089401C108108E01B
:100300000878002803D15089401C508101E0032067
:100310000BE04888C01C03240443641C1B1918000C
:10032000401D5468A042D9D3002010BDFFB585B050
:100330000400607B00280DD00F9800900123089ADC
:1003400007992000FFF70BFF002801D100208EE065
:1003500004208CE06846008F002807D002A8694678
:10036000098F4180FE21017002AD00E06568606880
:10037000A168884202D22878FF2801D1042076E0C3
:10038000207B002802D0002020731EE0606869886E
:10039000C91C03220A43521C801860606068050073
:1003A0006068A168884202D22878FF280DD10F9892
:1003B00000900123089A07992000FFF7D0FE00283B
:1003C00001D1002053E0042051E028780028D7D044
:1003D0002878FE2801D0032049E06846007EFF28E7
:1003E00004D068786946097E8842C9D18948008866
:1003F0006946C880002001006A465171694608714B
:1004000068460079009001AB9B1C6846C2880221B7
:100410002078FFF764FE002817D0082615486946A3
:10042000C9884018009003AF32000099380001F0ED
:10043000CDF904986168884203D10120694648716A
:1004400003E0012069460871DAE768464079002830
:1004500096D16068001D079908606888089908802F
:100460000F98002802D068780F990870002009B012
:10047000F0BD0000BC070020FBB584B014000020D4
:100480000D9908800F9801906846008F009002AB8C
:1004900003AA6846017D0498FFF748FF050028007D
:1004A000C0B2002802D02800C0B228E0200069466F
:1004B000098980B2884201D3062020E0684600897D
:1004C000210089B2401A6946098E884205DA6846D9
:1004D0000089210089B2461A01E06846068E039819
:1004E000210089B240180090069F32000099380020
:1004F00001F06CF9684600890D990880002007B06A
:10050000F0BDF7B584B00600069802906846808A70
:1005100041490140684601806846808A69460988E9
:10052000401A69468870002468460088844210DAC0
:10053000042502980019039001AF2A00039938009E
:1005400001F044F9019A31190F4801F02AFA241DEB
:10055000EAE70020C0430190684684780298694623
:100560000988451801AF22002900380001F02EF952
:10057000019A684600883118034801F012FA07B062
:10058000F0BD00003423000000100040FAB583B035
:1005900004000A9E01AD521E03201043401C694610
:1005A0000880FE2028706846007B687068460088D6
:1005B000801968800021684600888019001D80B27B
:1005C000FFF74AFE0290EFF3108772B6029801F02F
:1005D00039F9002803D187F31088072017E0019A22
:1005E00021006E4801F0DDF9049A68460188200078
:1005F000001DFFF786FF0B9A310089B2684600881C
:100600002018001DFFF77DFF87F31088002005B03C
:10061000F0BD0000C80B0020FCFF0000FEB586B056
:100620000400002528000E990880607B002828D04F
:100630000020009000230E9A02A92000FFF78FFDF2
:1006400000281CD10E9800886946098B401A69461B
:10065000098C884205DA0E9800886946098B451A8C
:1006600001E06846058C02986946098B4618079F89
:100670002A003100380001F0A9F800206EE00520C2
:100680006CE06846808F002808D003A86946898FEF
:100690004180FE21017003A8029001E06068029091
:1006A0006068A168884203D202980078FF2801D1CF
:1006B000042053E0207B002803D102980078FE2814
:1006C00001D005204AE0534800886946888001200F
:1006D000009001AB6846828802212078FFF7FFFC7A
:1006E000002811D008264A48694689884018009099
:1006F00004AF32000099380001F068F8059861688D
:100700008842E4D1052029E06846008B0299498897
:10071000884201D3062021E025730298408869466B
:10072000098B401A6946098C884205DA029840888C
:100730006946098B451A01E06846058C6068694680
:10074000098B4018061D079F2A003100380001F070
:100750003DF8029840880E990880002009B0F0BD4D
:10076000F8B50700FF26F64300210420FFF774FDCB
:100770000500EFF3108472B6280001F063F800283A
:1007800003D184F31088072007E0320039000348C2
:1007900001F007F984F310880020F2BD001000403A
:1007A00070B505000C001C482818C60A2300DBB2EF
:1007B00032000021D24801F009F970BDF8B50600F9
:1007C0000F0015006805400D002806D12A003900E9
:1007D000300001F02FF9002817D0681EC9490143E5
:1007E000491CC90AC9B23000FFF7DAFF0024AC4245
:1007F0000BD22000042101F042F980003A5831194F
:10080000BF4801F0CEF8241DF1E7F1BD0000000063
:10081000BC070020C80B00200000FCEF0121017084
:100820000021418081807047FFB587B0109E00276E
:100830003C006846808C0190FF200090089D009A43
:100840000199280001F07AF9FE2069460876684689
:10085000808C001B001F69464882307800283AD0FF
:1008600006AD681C0390B088029005A80190684608
:10087000408A00900898210089B24018031D002288
:10088000FF210798FFF7F8FD694608746846808ADB
:10089000B0806846007C002804D00A98048068462E
:1008A000007C6EE06846808A68800420029006A87A
:1008B00001900898210089B240180090029A01998D
:1008C000009800F083FF00986888C01C0321014352
:1008D0006418641C1FE0B088019005A80090684669
:1008E000438A0898210089B2421871880798FFF757
:1008F00095FE694608746846007C002802D0684668
:10090000007C3EE06846808A7188401A401E0321C0
:100910000143491C0C006846808A7188401A401EB9
:1009200003210143491C6846C1826846408A6946E2
:10093000C98A88420BD2377070886946498A401844
:1009400070806846808C0A990880002019E068460B
:10095000C08A6946498A884208D101203070778070
:100960006846808C0A99088000200AE06846C08AA0
:100970006946498A884200D369E701203070778050
:1009800065E70BB0F0BDF1B59E488544002069468F
:100990000873B5489C4969440978142251434018AA
:1009A0004089002801D10020A6E00020009000230B
:1009B000AE4802880621944868440078FFF78FFB10
:1009C000002801D0092097E0202000F017FA002825
:1009D00001D1082090E009A98B486844007800F014
:1009E0007DFC07000A9C05A8FFF718FF05A803C8AF
:1009F00007AA03C2083A0DA809A9102200F0CCFEEC
:100A000080252D0105A8009003AB9B1C2A0011A98D
:100A100009A8FFF709FF07003800C0B2042806D074
:100A20003800C0B2002802D03800C0B264E0684686
:100A3000C0892900884203D03800C0B20028D5D030
:100A40006846C08900282FD001216846C089FFF779
:100A500003FC0490EFF3108672B6049800F0F2FEE7
:100A6000002811D186F310886846007B002801D148
:100A7000072041E007A803C80190029100940DA847
:100A80000FC800F038FA37E06846C28911A9200083
:100A9000FFF794FE86F310880120694608736419F5
:100AA0003800C0B20028A1D00B98401E1549014360
:100AB000491C081BC00A69464870AB482018C00A88
:100AC0006946087000A9491C6846FFF7D0FB072853
:100AD00009D168464278684601784B4868440078F6
:100AE00000F034FA08E06048474969440978142264
:100AF00051434018FFF7EAFBBE498D44F0BD0000AA
:100B000000100040FF070000F0B5BB4CA5440400F6
:100B100003A821001831062200F058FE05A8211D67
:100B2000102200F039FE80252D01200018300090A1
:100B300001AB2A0009A9201DFFF776FE07006846D1
:100B400080882900884203D03800C0B20028DFD056
:100B50006846808800282BD0002168468088FFF7EF
:100B60007BFB0290EFF3108672B6029800F06AFEEB
:100B700000280ED186F31088201D05A9102200F050
:100B80000BFE2000183003A9062200F01FFE0720EC
:100B900034E06846828809A96069FFF70FFE86F392
:100BA00010886069401960613800C0B20028AFD079
:100BB000E068401EB5490143491C6069081AC00A33
:100BC00069464870606968494018C00A69460870FB
:100BD00000A9491C6846FFF74AFB072807D1684669
:100BE000427868460178207900F0B0F906E01E48A6
:100BF0002179142251434018FFF768FBA4498D4422
:100C0000F0BD0000B8F7FFFF48080000F0B5A14CA8
:100C1000A544060000206946C87100206946887115
:100C200000253079854225DAB0680C216943405CA3
:100C3000694608710C4869460979142251434018E5
:100C40004089002802D00120694688710020009068
:100C5000002306480288062168460079FFF73FFA1C
:100C6000002805D009207CE0D00A0020C80B002015
:100C70006D1CD6E768468079002801D1002070E01D
:100C800080273F013A00FF210BA800F07EFF0024DF
:100C9000307984422ADAB0680C216143405C6946AD
:100CA0000871B0680C21614340184068039007A99F
:100CB0006846007900F012FB694648716846407941
:100CC000002801D000204CE005A8FFF7A7FD05A8EB
:100CD000009002AB38000399421A92B20BA8039914
:100CE000411807A8FFF7A0FD641CD1E701213800D7
:100CF000FFF7B2FA0490EFF31080009072B60498F8
:100D000000F0A0FD002804D1009880F3108807208F
:100D100027E03A000BA93068FFF750FD009880F3F8
:100D2000108800253079854219DAB0680C216943B2
:100D3000405C694608719648694609791422514316
:100D40004018FFF7C3FA69464871684640790028A1
:100D500003D0684640796946C8716D1CE2E7684671
:100D6000C0798C498D44F0BD0000FCEFF2B5010064
:100D700000200300022B0FDA874C0C255D43641919
:100D8000A479220014000D00E4B2EDB2AC4201D10E
:100D9000022026E05B1CEDE70300002B20D50400B9
:100DA000A94D0C265E43AE193679B44216DA0C26EC
:100DB0005E43AE19B6680C276743F65D3200160035
:100DC0000F00F6B2FFB2BE4206D10C2058432818DD
:100DD000009D2860012004E0641CE1E75B1CDCE767
:100DE0000020F2BD9948008899490988401A80B2CC
:100DF000704700004C080000DCF7FFFFF1B582B03F
:100E0000FFF7F0FF040080204000210089B2411A62
:100E10006A461289914201DA002017E08B4D298839
:100E2000401A6946098988420FDA200080B2019091
:100E3000874E884F308838180090019A0099380002
:100E400000F0F0FC002030802C800120FEBDF1B5C8
:100E500082B00C007D4D802040002988401A21007E
:100E600089B2884201DA00200FE02600B6B202986B
:100E7000009078482988471832000099380000F01F
:100E8000A5FC2888001928800120FEBDFF0700006E
:100E900024080000D4F7FFFFF7B582B00A9E0B9C30
:100EA0000C9D5B1E03271F437F1C3819801D80B2D9
:100EB000FFF7A4FF002801D108201AE068460121AD
:100EC00081703919891D01806946097AC1706946A6
:100ED000097B017106216846FFF7B9FF390089B225
:100EE0003000FFF7B4FF210089B22800FFF7AFFF01
:100EF000002005B0F0BD1FB588B00E9C2020FFF784
:100F00007DFF002801D108201EE0684620210180D5
:100F1000032181706846001D08A9102200F03CFCE6
:100F20000594684618300FA9062200F04FFC2021D6
:100F30006846FFF78CFF0120154908AA1278142390
:100F40005A438918887300200CB010BD7CB504008A
:100F50000D0016000620FFF751FF002801D10820E0
:100F600014E068460621018004218170C470057177
:100F7000467106216846FFF76AFF012004492200F6
:100F8000D2B214235A4389188873002076BD00001A
:100F9000D00A00202C080000D8990410F1B5694847
:100FA00085440E0080273F013A00FF2108A800F089
:100FB000ECFD00243079844229DAB0680C216143C9
:100FC000405C6946087168460079822109016944DC
:100FD0000978884219D004A96846007900F07EF9A2
:100FE000B0680C2161434018456802A8FFF716FC61
:100FF00002A8009001AB9B1C38002900421A92B253
:1010000008A8411904A8FFF70FFC641CD2E70121CE
:101010003800FFF721F90500EFF3108472B62800BD
:1010200000F010FC002803D184F31088072007E0AB
:101030003A0008A93068FFF7C1FB84F3108800204C
:10104000C6498D44F0BD0000A80B0020CA0B00204B
:10105000C80B0020BC070020FBB582B004000320B1
:10106000BF4E3100511805000D436D1C6168491DCC
:10107000A26891420BD3C9482178142251434018E9
:101080004089002801D00B205AE0022058E0616816
:101090000F003978FF2913D1A0686168401AB04267
:1010A00003D2A0686168461AFFE7300080B22900C9
:1010B00089B26A46128D8918091D88421CDA0FE030
:1010C0003978FE2904D03978002901D0032037E08F
:1010D00061687A88D21C0243521C89186160C5E796
:1010E000AE4821781422514340184089002801D08D
:1010F0000B2025E0022023E00B9801906846008D2C
:101100000090049B2A0092B26846017B6068FFF75A
:101110003DFA01000800C0B2002802D00800C0B2A9
:101120000EE09E4B2078142250431A189C462078DB
:1011300014235843634618180089401C108100206E
:1011400005B0F0BDE0F7FFFFFEB50025002D7AD514
:10115000934F0C2068433858019000260C206843B8
:101160003818007986426CDA0C2068433818806899
:101170000C217143405C04000C20684338188068DF
:101180000C2171434018406802900C2068433818C5
:1011900080680C21714340180089694648807F4867
:1011A0002100C9B2142251434158002903D1210022
:1011B000C9B2022901DB01208FE00199029A891846
:1011C0002200D2B214235A4381500C21694379186A
:1011D0000979491E8E420AD101998022120189188B
:1011E0002200D2B214235A43821851600FE00199B1
:1011F0000C226A43BA1892680C237343D2181269FE
:1012000089182200D2B214235A43821851606946C9
:1012100049882200D2B214235A4382181182210035
:10122000C9B2142251434018FFF750F869460870BC
:1012300068460078002802D0684600784DE0761CA9
:101240008CE76D1C82E70025022D45DA55480C21FC
:101250006943411889790C0050492200D2B2142305
:101260005A438A58002A03D12200D2B2022A01DB53
:10127000012032E00C226A4382582300DBB214269C
:101280007343CA500C226A4382580C236B43C31821
:101290009B88D2182300DBB214267343CB185A6004
:1012A0000C226A43801800892200D2B214235A43C8
:1012B0008A1810822000C0B2142250430818FFF789
:1012C00005F86946087068460078002802D068462C
:1012D000007802E06D1CB7E70020FEBD10B50200EB
:1012E0001000C0B2022801DB012013E02B481300DC
:1012F000DBB214246343C3584B601300DBB21424E5
:101300006343C01840688860012008730A70002099
:101310004873002010BDF8B584B004000F0016001B
:101320001D001E482178142251434018807B00285C
:1013300001D00A2010E000200390002002900B98BA
:1013400001906846008D00902B00320092B2390067
:10135000C9B22000FFF790F805B0F0BD24080000E6
:10136000FFFF0000FEB504000F0016001D000B4833
:101370002178142251434018807B002801D00A2094
:101380000BE000200190089800902B009BB23200E7
:10139000390089B22000FFF741F9FEBDD00A0020D4
:1013A000A80B0020D8990410FAB583B00600464C6B
:1013B0003078142148432018807B002801D0092070
:1013C0007FE0521E032717437F1C307814214843C7
:1013D00020188089390089B26A46128D891888429E
:1013E0000ADA30781421484320184089002801D0B7
:1013F0000B2066E0022064E00020009000233348C8
:10140000028806213078FEF76AFE002816D00B9875
:1014100002906846008D0190049800903B009BB2BA
:1014200072686846017B3078FFF736FD05002800BA
:10143000C0B2002832D02800C0B242E00B98019020
:101440006846008D0090049B3A0092B26846017B8A
:101450003000FFF701FE05002800C0B200281DD0B3
:101460002800C0B2072802D02800C0B229E00B989B
:1014700002906846008D0190049800903B009BB25A
:1014800072686846017B3078FFF706FD050028008A
:10149000C0B2002802D02800C0B212E03078142177
:1014A00048432018317814225143611889896A46CB
:1014B000128DBA18521E03231343C91A491F818182
:1014C000002005B0F0BD0000D00A0020C80B0020AD
:1014D00038B5040069462000C0B2FFF747FC05009C
:1014E0002800C0B2022804D12000C0B2FFF74BFA96
:1014F00008E02800C0B2012803D10098FFF786FB5E
:1015000000E0012032BDF0B599B09E4D28889E497B
:101510000988884200D1EDE004269C4C28882018D8
:10152000049003AF32000499380000F04FF903A88B
:101530008078012809D000D2D5E003285AD02BD3D7
:10154000052800D196E06BD3CDE006272888201827
:1015500004900BAE3A000499300000F037F90BAE5E
:101560000DA9F078FFF7BAFE00200190002000904E
:1015700028882018831D3288921F92B231790DA8D5
:10158000FFF76AFD694608726846007A002802D0B3
:101590006846007ABAE0A8E008262888241809AD31
:1015A00032002100280000F011F90A98FFF7D8F85E
:1015B000694608726846007A002818D109A874495B
:1015C000C27814235A438A18C37814246343CB186F
:1015D0001B895B1E1381C27814235A438A18C07872
:1015E0001423584308184089401C50817DE0684608
:1015F000007A8BE020262888241811AD32002100C3
:10160000280000F0E3F811A8FFF77EFA6946087297
:101610006846007A002802D06846007A76E064E0E6
:101620000627069728882018059007AE069A059980
:10163000300000F0CBF807AE711D301DFEF717FE2D
:1016400069460872049707AF28882418049A39005D
:10165000200000F0BBF86846007A002807D14C480B
:10166000F178142251434018FEF730FE3DE0684601
:10167000007A4BE00826288825186C46320029009D
:10168000200000F0A3F86C460199E078FFF786FC93
:10169000694608726846007A00281CD10025019826
:1016A0000079854217DA019880680C216943465C0D
:1016B0003000E178C0B2884203D03000C0B2FEF7FB
:1016C0008CFD33483100C9B2142251434018FEF753
:1016D000FDFD6D1CE3E76846007A002802D06846ED
:1016E000007A13E001E00C2010E068468089FEF7E4
:1016F000E7FC0AE700F00CF80400200040B20028E4
:1017000003D42000C0B2FFF7E3FE002019B0F0BD03
:1017100030B5204801781E4A0B00DBB21424634325
:10172000D3185B89002B19D00B00DBB21424634360
:10173000D3189B890C00E4B214256C431219128A49
:1017400093420BD20A00521C027000228256022AD7
:1017500001D100220270080040B212E0491C0A00C8
:10176000D2B2022A01D1002211000A00D2B2002313
:10177000C35612B21BB29A42CDD100220270002091
:10178000C04330BDC80B0020CA0B0020BC0700209E
:10179000D00A0020CF0B002070B4103A03D378C9D0
:1017A000103A78C0FBD2530701D318C918C001D52D
:1017B00008C908C0D20704D30B880380891C801C89
:1017C000002A01D50B78037070BC70478B0701D1DC
:1017D0008307E1D0124205D00B78491C0370401CEE
:1017E000521EF9D1704730B501684118446862084B
:1017F0008A188368E40704D54C461B1901E0641C71
:1018000009D1914203D00C7864B2491C01E00C303C
:1018100030BD0D78491C1D705B1C002CEFD4641E7C
:10182000F7D5EEE7814202D25318984203D300B5B0
:10183000FFF7CCFF00BD521E03D38B5C8354521EB6
:10184000FBD2704758B5040000F0ACFB06006846B8
:1018500000F0D4FC002801D1012006E00098801B94
:10186000844201DA012000E0002052BD10B5FFF7EC
:101870006BFC434C21000020FFF730FD4149012063
:10188000FFF72CFD4048046010BDFEB504000F00BA
:1018900016001D002000C0B2022803D139483A4981
:1018A000086002E036483849086001956846008CB7
:1018B00000903B00320092B22100C9B23248006869
:1018C000FFF772FD01000800C0B2002801D100201E
:1018D00008E00800C0B2022802D10020C04301E0A5
:1018E0000120C043FEBDF3B583B017001E000A9D62
:1018F0006846007C022804D122482349086001245C
:1019000003E01F482049086000246846007B022845
:101910000CD102A800902B009BB23200390089B292
:1019200019480068FFF71EFD010018E06846007BBB
:10193000002805D1144801682000C0B2FFF7CEFC92
:1019400002A80190280080B2009033003A0092B2C1
:101950006846017C0C480068FFF7DDFC01000800C8
:10196000C0B2002801D1002008E00800C0B204285D
:1019700002D10220C04301E00120C04305B0F0BD08
:10198000680B0020780B0020AC0B002000B500692C
:101990000840884201D1012000E0002000BD016123
:1019A000704770B504000D0016000F212000FFF7EE
:1019B000F6FFA80880B2A0612664332020600121D0
:1019C0002000FFF7E3FF0128F9D170BDF8B504004E
:1019D0000E001700FF2E0CD10F212000FFF7DFFFB4
:1019E0002220206001212000FFF7D0FF0128F9D13B
:1019F00016E03D0000983818854211D20F212000D2
:101A0000FFF7CDFFE802800880B2A06111202060BE
:101A100001212000FFF7BAFF0128F9D16D1CE9E789
:101A2000F1BD10B54C788A780878CB1C2146C046A9
:101A3000C04610BDA446521E08D303780C78401C43
:101A4000491CA342F7D0181B644670470020644627
:101A50007047F446002804D4494200F013F840428D
:101A600060474042002905D45FD000F00BF84042A7
:101A700049426047494200F005F849426047034641
:101A80000B43E6D40022030A8B420BD203098B429C
:101A900019D243088B422ED2411A00D2014652413C
:101AA00010467047FF2209023FD012068B4205D331
:101AB000121209028B4201D31212090203098B424E
:101AC00019D300E0090AC3098B4201D3CB01C01A24
:101AD000524183098B4201D38B01C01A5241430901
:101AE0008B4201D34B01C01A524103098B4201D3EF
:101AF0000B01C01A5241C3088B4201D3CB00C01A5C
:101B0000524183088B4201D38B00C01A52414308D3
:101B10008B4201D34B00C01A5241884200D3401A75
:101B20005241CFD201461046704708B5C046C04664
:101B300008BD10B50888C046C04610BD1206130A7D
:101B40001A43130C1A4300BF094205D0830705D07E
:101B50000270401C491EF9D1704700001300103973
:101B600006D330B41400150010393CC0FCD230BC90
:101B7000490700D30CC000D504C0890002D30280FD
:101B8000801C002900D50270704710B504000800C1
:101B9000110002002000FFF7D1FF200010BD7047A8
:101BA00000B5010049B2002905D40121C206D20EB8
:101BB0009140AE4A116000BDF8B586B005000F0037
:101BC00000243C70A87A00285ED0A9480CC80838C8
:101BD000A848006800218018594104AA03C2083AA5
:101BE000EFF3108672B600F069FD02AA03C2083A4C
:101BF00003CD083D0090019104A803C8C8229202B9
:101C0000002312184B4100980199994210D301D832
:101C100090420DD304A803C8B92252000023121821
:101C20004B4102A803C88B422CD801D3824229D24F
:101C300002A803C800220A3051410090019103CD4F
:101C4000083D00224C389141009A019B8B4212D8EA
:101C500001D382420FD22A7A297B0B0003CD083DA3
:101C6000190000F08EFD3870AC7201206872E872C5
:101C700086F3108808E09848847286F31088012063
:101C8000387001E086F3108807B0F0BD10B504008D
:101C900000F0ACFC01207749087110BD30B502009E
:101CA000130000241000002B04D08B4202D01C0033
:101CB0001B69F8E7002B06D0934202D11D6928006A
:101CC00001E01D69256130BDF8B504000F00250055
:101CD00000260094002D0BD00CCD083D03CF083F0B
:101CE0008B4205D801D3824202D22E002D69F1E742
:101CF0003D61002E01D1009700E037610098F2BDF0
:101D0000F8B584B007000D003C0000970020287053
:101D1000002C28D0207B002823D0EFF3108672B649
:101D200000F0CCFC02000B0003CC083C801A994167
:101D300002AA03C2083A02A803C800290CDB01DC8E
:101D4000012809D301210A0002A803C8110000F0EC
:101D5000F8FC86F3108806E00120287086F31088CE
:101D600001E02469D4E72878002801D0009800E039
:101D7000200005B0F0BDF2B584B007003C0000259E
:101D800001950097049807602E00002C19D0207B45
:101D9000002812D000F092FC02000B0003CC083C9B
:101DA000801A994102AA03C2083A02A803C800296E
:101DB00003DB01DC062800D303E001942469761CD0
:101DC000E3E7002E03D001980561009401E0049838
:101DD0000560009805B0F0BDF8B5040016001F00BE
:101DE000002069460870207B002801D0012024E0F3
:101DF000C0C4083C012020731E4D2100A868FFF7D5
:101E000063FFA04217D169462000FFF779FFA86061
:101E10006846007800280ED0EFF3108072B6297D56
:101E2000491C6A7D914201D1297D01E0297D491C2F
:101E3000297580F3108868460078F2BD38B5040033
:101E40002000C0B2002809D00A4D287B00280BD101
:101E50005648FFF71BFF0120287305E0534800F0A8
:101E600077F800200349087331BD000000E100E06D
:101E7000500B0020200B0020F8B500F04DFC4C4C1E
:101E800000256572A572E572EFF31080009072B6BE
:101E900000F014FC06000F0000F050FC020003CC20
:101EA000083C801BB941002306000F00B61A9F4171
:101EB000009880F31088002F04DC01DB012E01D292
:101EC000012007E0002F04DC01DB0F2E01D20220ED
:101ED00000E02800C0B2F2BD880B0020F8B5070072
:101EE00014001D0022002B003800FFF775FF0600CC
:101EF0000120FFF7A3FFF6B23000F2BDF6B583B0C4
:101F000005000C00002368460372294A14736846D2
:101F1000007C10725A4E03CE083E0090019103CE11
:101F2000083E281A0021009E019F8019794103C2B2
:101F3000083A5372D3720120907202A91000FFF781
:101F40003BFE0120FFF77AFF6846007A05B0F0BD3E
:101F50007CB50600494C3100A068FFF79FFE0500E4
:101F60000020694608703073A068A84218D06946FE
:101F70002800FFF7C5FEA06068460078002810D052
:101F8000EFF3108072B6217D491C627D914201D130
:101F9000217D01E0217D491C217580F3108800E03E
:101FA000A56073BD80B500F089FB04BD380B00202F
:101FB000880B0020F8B5070000F080FC1420FFF724
:101FC000EFFD6846B97881707968002901D0012158
:101FD00000E00021C17039880180684600F080FA75
:101FE000274800F077FB254D0024AC6001202873C2
:101FF0007968002900D12000A8752000E875784A8A
:1020000020005072200090722000D0720020002129
:1020100003C2083A388828612000287520006875B6
:10202000786800030A21FFF72DFD28602000287141
:102030002868002804D16C4800F050FC28600CE0AF
:10204000694E300000F04AFC2968814201D22868BC
:1020500002E0300000F042FC2860644E6448B0604A
:10206000746100F02BFB2A68002312184B413000EA
:10207000FFF7B2FE286800F03EFBF1BD200B002008
:10208000500B0020FEB5002069460870EFF3108069
:10209000029072B65248407A00280DD000F00EFB34
:1020A00002000B004E4803C8994205D801D3904264
:1020B00002D200204A494872029880F310884D4CA1
:1020C000207D617D884203D3207D617D401A05E03B
:1020D000207D617D401A802149004018002840D0B1
:1020E000207D617D884205D3207D617D401A69464F
:1020F000487004E0207D617D401A694648703E4F7B
:1021000001A9A068FFF737FE3860019D002D0AD0B5
:102110002E6900202873A868002802D02800A9682A
:1021200088473500F2E76946A068FFF7E9FD3860A7
:102130006846007801280ED1EFF3108072B6217D39
:10214000491C627D914201D1217D01E0217D491C24
:10215000217580F31088607D694649784018607564
:10216000ADE72079002825D000F04AFA002836D1C2
:10217000002001002171A17D002904D1E17D002909
:1021800001D0E07504E000F04DFA164800F0A2FA24
:1021900069461348FFF710FD144D2800FFF7D8FEDD
:1021A00000F08CFA2268002312184B412800FFF738
:1021B00013FE14E00B4C207C002810D000F07EFAB7
:1021C0000CCC083CFA2464030025A4185D418D4220
:1021D00005D801D3844202D20448FFF757FDF7BD6A
:1021E000880B0020500B0020FFEFFFFF380B002072
:1021F0008D1C0410200B0020280B002003490968C7
:10220000CA680260087C0009704700007400002062
:1022100000B5010049B2002905D40121C206D20E41
:102220009140A94A116000BDA848016801220A43F3
:1022300002600020A64908607047F1B582B0A44949
:1022400008684003400B0A685203520B904201D1C8
:10225000002804D10A685203520B1000F3E79D498D
:1022600002120192C2B20092019A4A43009B4B4370
:102270001B12D21810325211029B5A62029A9061BC
:10228000954AD54C23685B015B0925686D016D0992
:10229000AB4201D1002B04D125686D016D092B00E3
:1022A000F3E79C11250055432E0080363612029F1D
:1022B0003E62029EF361F7BD10B50400FFF7B4FF64
:1022C00082480068C007FBD52000FFF7B6FF10BDAD
:1022D000010068204843DB224A43000A120C8018A0
:1022E000704738B50400BD48C069002122000023B2
:1022F00000F016FB0322002300F012FB02000B008B
:102300008020C004002180185941C00E4D0128438F
:10231000C90E32BDF3B585B0EFF31080019072B6EF
:10232000059803C802AA03C2083A6C4800680699D7
:102330000860069800680599C96A401A0090A84D7F
:1023400002A8C0C808382A000598416A009800F021
:1023500001FB00218019794106000F009F4C2000ED
:10236000383003C88F420ED801D386420BD22A00E0
:102370000598416A0020C04300F0ECFA0021801962
:10238000794106000F0020003830C0C0083801989D
:1023900080F310883000390007B0F0BD1CB5040090
:1023A00069462000FFF7B6FF1CBD38B505008D4813
:1023B0000078C0B27D214843FA218900FFF75FFB16
:1023C0000400641C884A296A1B2000F0C3FA8B4968
:1023D000087090480078C0B2FFF783FF4921685425
:1023E0008D480078C0B22100C9B24018FFF779FFCC
:1023F0004121685489480078C0B22100C9B2401810
:10240000FFF76FFF4221685485480078C0B2FFF79C
:1024100068FF43216854AC480078C0B2FFF761FF01
:102420004421685431BDF8B504002C480568A76AFA
:102430006B4E32003900206B281A00F08BFA210015
:1024400008310CC9083900218018594103C4083CDF
:102450009E480078002811D1206B281A616B8842B1
:102460000CD2320039000020C04300F073FA0CCCCB
:10247000083C00218018594103C4083CE5622563EB
:1024800003CC083C2200083203C2083A606AA0620A
:10249000F1BD38B505000C00534A2100280080B278
:1024A00000F058FA80214901884201DB8849080080
:1024B000102801DA10210800484902118A82898A0D
:1024C000934A116031BD000000E100E0101000608F
:1024D00008100060F6BC08005307000010180060E8
:1024E000F8B507003D4C388820613E480078C0B2FE
:1024F0007D214843FA218900FFF7C1FA0600761CC6
:10250000824D28681028FBD3F878002802D1B878CB
:1025100000280ED07F480068C007FBD583480168BB
:1025200017220A4302602000FFF7C6FE606AA0621D
:1025300009E0C8204003A06260627D4820627D48B7
:10254000A0617D48E061F87840216054216A2069EB
:1025500080B2FFF79EFF002210004A216054002045
:10256000002103C4083C2B68E362E36A2363230071
:10257000383303C3083B2300083303C3083B4B2015
:1025800022542000FFF711FF23480078C0B2310029
:10259000C9B24018FFF79CFE1B30452160541F480C
:1025A0000078C0B23100C9B24018FFF791FE1B306D
:1025B000462160541A480078C0B2FFF789FE1B30EC
:1025C0004721605440480078C0B2FFF781FE1B30BD
:1025D00048216054F1BD00000C100060480A002042
:1025E00035060000CE0000202603000080B53748E5
:1025F0000078002801D0FFF717FE01BDC5000020BC
:10260000444800680100C907C90F01204840C0B212
:1026100070470000C6000020C8000020C90000204C
:10262000CA00002038B594B0984C4020205C0028A7
:102630003AD0684621005022FFF7AEF86846FFF70F
:10264000FCFD0899049880B2FFF723FF6846FFF766
:10265000ACFEEFF3108572B601204B216054069852
:10266000A0610798E06108982062099860620A9862
:10267000A06268464121415C4122A1544221415C53
:102680004222A1544321415C4322A1544421415C94
:102690004422A1544921405C492160542000FFF7A5
:1026A000C2FE85F3108807E0EFF3108572B62000B4
:1026B000FFF7B9FE85F3108815B030BD80B57348BB
:1026C000FFF76CFE04BD0000CB000020880A00204C
:1026D000FF0F000002006D4B4020185C1074D86999
:1026E000D0601800083003C803C2083A98699060A7
:1026F000186B5061704738B50500644C764A216A02
:10270000280000F027F9606331BD00001018006058
:10271000081800601010006000205D4908605D48E6
:102720000168734A0A4002607047000004100060AC
:10273000C2F528008D5B0000ECEB65016E48007867
:10274000704738B504000D00634A5048016A200004
:1027500000F000F90100212900D22021674800681B
:1027600042180832664B1A604A4A13688024A4054E
:102770001C431460634A13688024E4051C431460FE
:1027800032BDF7B584B06846007D012811D1684696
:10279000007E002806D03D484121445C4521405C34
:1027A000009017E039484221445C4521405C00908C
:1027B00010E06846007E002806D034484321445C7F
:1027C0004521405C009005E030484421445C4521AF
:1027D000405C00902D4D049E01A92800FFF79AFD52
:1027E000301A02903C4A296A029800F0B3F80700B8
:1027F000009829694018C8300299884217D2424887
:102800000178791A0E1B019989192B4A1160214907
:102810000A6807239A430A6000221D4B1A600A685F
:10282000C023DB0513430B600078241812E0492015
:10283000285C381A061B019880192E49086002206E
:102840001349086013480168294A0A400260492078
:10285000285C24180198C019E86431192000401D33
:10286000814209D200200A4908600A480168204ACA
:102870000A400260012007E0244A696A200000F053
:1028800069F84A216854002007B0F0BD480A0020CA
:102890000C00006028180060EFF3108072B6174932
:1028A00009680A00921C134B1A600222194B1A6025
:1028B00080F31088704700002418006080B5012064
:1028C00015490A6802430A6014490A6810430860FF
:1028D0001720FFF79DFC01BD2603000010B5040082
:1028E0000A4A0B48416A200000F034F810BD00008D
:1028F000FFFFFFBF10000060920A00201018006068
:102900002C18006030180060C5000020350600005B
:10291000480A00200C0000604C1800604818006055
:1029200030B4434351435D18010C0C00130C5C435D
:102930002D1980B2434392B251430024C918644117
:1029400024040B04090C09195043C018694130BC18
:102950007047704710B5904216D98AB2030C090C23
:102960000C46594380B25343444350431B191A0445
:102970001B0C1018594180225203002312184B419E
:10298000520DD802104310BD484380225203121842
:10299000520D104610BD70478C490A680860704798
:1029A0008B490A687F239A4343065B0E13430B60EF
:1029B00070478748016880220A4302607047844854
:1029C0000168802291430160704710B480490A6811
:1029D000804B13400202FF24240214401C430C606D
:1029E00010BC704710B47A490A687B4B134002044C
:1029F000FF24240414401C430C6010BC704774492D
:102A00000A681202120A030613430B6070477349E7
:102A10000A68FF239A43C3B213430B60704710B494
:102A20006E490A686B4B13400202FF2424021440D3
:102A30001C430C6010BC704710B468490A68664BB0
:102A400013400204FF24240414401C430C6010BCF7
:102A5000704762490A681202120A030613430B60A8
:102A600070476A490A68FF239A43C3B213430B6055
:102A7000704710B465490A68564B13400202FF24A0
:102A8000240214401C430C6010BC704710B45F4912
:102A90000A68514B13400204FF24240414401C43D1
:102AA0000C6010BC704710B458490A686B4B134057
:102AB0000206FC24A40514401C430C6010BC7047A3
:102AC00067490A68FF239A43C3B213430B607047F8
:102AD00010B463490A68634B134002026A4C144005
:102AE0001C430C6010BC70476848016804220A430C
:102AF0000260704765480168802212040A43026040
:102B00007047624801688022D2050A43026070471C
:102B10005F490A687F239A4343065B0E13430B60A9
:102B2000704710B45B490200D2B25C235A438A5802
:102B3000402313430200D2B25C2462438B5010BC8A
:102B4000704710B453490200D2B25C235A438A58EA
:102B500040239A430300DBB25C246343CA5010BC99
:102B6000704710B44B490200D2B25C235A438A58D2
:102B7000802313430200D2B25C2462438B5010BC0A
:102B8000704710B443490200D2B25C235A438A58BA
:102B900080239A430300DBB25C246343CA5010BC19
:102BA000704730B43B4A0300DBB25C246343D35824
:102BB0003A4C1C400B02FC25AD011D40254303008F
:102BC000DBB25C246343D55030BC7047C0000020AA
:102BD000C4000020FF00FFFFFFFF00FFC80000202F
:102BE00030B42C4A0300DBB25C246343D358544C0A
:102BF0001C400B06E025ED041D4025430300DBB21D
:102C00005C246343D55030BC70470000CC000020EA
:102C100030B4204A0300DBB25C246343D358554CE4
:102C20001C400B07E025ED051D4025430300DBB2EA
:102C30005C246343D55030BC704710B4164A03007F
:102C4000DBB25C246343D3185B680300DBB25C2413
:102C50006343D218516010BC70470000FFFFFFC0F3
:102C6000D0000020FF0000F010B40B4A0300DBB2DC
:102C70005C246343D3189B680300DBB25C2463438A
:102C8000D218916010BC704700FFFF0FD4000020E5
:102C9000D8000020DC000020DC000020FFC0FFFF87
:102CA00010B4354A0300DBB25C246343D3185B6A7B
:102CB0000300DBB25C246343D218516210BC70473E
:102CC00030B42D4A0300DBB25C246343D3189B6A03
:102CD0001B0E1B060C02240A1C430300DBB25C25FE
:102CE0006B43D218946230BC704730B4224A030060
:102CF000DBB25C246343D3189B6A1B021B0A0C06DD
:102D00001C430300DBB25C256B43D218946230BCD9
:102D1000704730B4184A0300DBB25C246343D31815
:102D2000DB6A1F24A343CC06E40E1C430300DBB282
:102D30005C256B43D218D46230BC704700000000A1
:102D4000FFFFFFF830B40C4A0300DBB25C2463439E
:102D5000D318DB6A2F4C1C400D02FC239B012B4037
:102D600023430400E4B25C256C431219D36230BCE7
:102D700070470000FFFFFF8FDC0000200268016049
:102D80007047426801239A430B00DB07DB0F1343B4
:102D90004360704710B4426804239A438B000424B4
:102DA00023401343436010BC704710B44268202393
:102DB0009A434B01202423401343436010BC7047C7
:102DC0004168802291434160704710B44268374B9C
:102DD00013400A028024640022401A43426010BC5F
:102DE000704710B44268324B13404A028024A4005A
:102DF00022401A43426010BC704710B442682D4B09
:102E000013408A028024E40022401A43426010BC2E
:102E100070470000FFC0FFFF826881607047C26892
:102E2000120D12050B031B0B1343C3607047C168DF
:102E3000802252030A43C260704710B4C2689F4B9D
:102E400013408A058024E40322401A43C26010BC68
:102E5000704710B4C2689A4B1340CA0580242404FA
:102E600022401A43C26010BC7047C168802292049D
:102E70000A43C2607047C168802212060A43C260DA
:102E8000704790490A68904B1340904A02401A4399
:102E90000A60704710B4B3490A6808239A43C30014
:102EA0000824234013430B6010BC7047FFFEFFFF54
:102EB000FFFDFFFFFFFBFFFFF8B500242000694680
:102EC000087000F051F9402000F08FF93F2000F029
:102ED000AFF9092000F0B3F95A2000F094F932203C
:102EE00000F098F95A2000F06CF9322000F070F9E7
:102EF000102000F0B9F9102000F0BDF9042000F016
:102F0000ACF9142000F078F9052000F09FF900F0EA
:102F10004DF900F031F9002000F04CF9012368462A
:102F200003709B490A001032100025002E00F6B2F3
:102F300083556D1C5E262F00FFB2C6556D1C954E45
:102F400036682F00FFB2C6556D1C2E00F6B28355B1
:102F50006D1C5D262F00FFB2C6556D1C8E4E366867
:102F60002F00FFB2C6556D1C2E00F6B283556D1CA6
:102F700052262F00FFB2C6556D1C884E36682F00B2
:102F8000FFB2C6556D1C2E00F6B283556D1C12267D
:102F90002F00FFB2C6556D1C814E36682F00FFB260
:102FA000C6556D1C2E00F6B283556D1C15262F00DC
:102FB000FFB2C6556D1C7B4E36682F00FFB2C6555A
:102FC0006D1C2E00F6B283556D1C1A262F00FFB221
:102FD000C6556D1C744E36682F00FFB2C6556D1C69
:102FE0002E00F6B283556D1C22262F00FFB2C65567
:102FF0006D1CA44E36682F00FFB2C6556D1C2E0006
:10300000F6B283556D1C21262F00FFB2C6556D1CEC
:103010009D4E36682F00FFB2C6556D1C2E00F6B2CD
:1030200083556D1C23262F00FFB2C6556D1C974E8D
:1030300036682F00FFB2C6556D1C2E00F6B28355C0
:103040006D1C1B262F00FFB2C6556D1C904E3668B6
:103050002F00FFB2C6556D1C2E00F6B283556D1CB5
:1030600090262F00FFB2C6556D1C8A4E36682F0081
:10307000FFB2C6556D1C2E00F6B283556D1C912310
:103080002E00F6B283556D1C834B1B682E00F6B2E2
:1030900083556D1C23002E00F6B283556D1C0A600B
:1030A0004A6008000C3088600460080000F097F85F
:1030B00000F06AF800F064F8F1BD0000FFFFBFFF08
:1030C000FFFF7FFF040000604F000200B0FFFDFF24
:1030D00070B5040020000D00EDB2012D02D10625CF
:1030E000AD1C0EE00D00EDB2002D02D10425AD1C8B
:1030F00007E00D00EDB2022D02D102252D1D00E0EA
:1031000000250E00F6B2012E03D00E00F6B2022EFC
:1031100009D11600F6B2012E02D19B26330013E02E
:103120003D26330010E00E00F6B2002E03D00E0054
:10313000F6B2032E08D11600F6B2012E02D199265E
:10314000330001E03B263300C01A401B70BD10B5B0
:1031500004002000FFF795FE10BD80B50120FFF7A9
:1031600099FE01BD1800006080B5FFF728FC01BD85
:1031700080B5FFF71EFC01BD80B5FFF7BBFC01BDAC
:1031800080B5FFF7BEFC01BD0120444908607047CF
:10319000980A0020781600607416006048160060D7
:1031A00048150060541500606815006080B5FFF791
:1031B0009BFC01BD10B504002000C0B2FFF7A8FCC5
:1031C00010BD10B504002000C0B2FFF720FC10BDF8
:1031D00010B504002000C0B2FFF721FC10BD10B5EF
:1031E00004002068FFF7D8FB10BD10B504002000D4
:1031F000C0B2FFF7EAFB10BD10B504002000C0B25A
:10320000FFF72FFC10BD10B504002000C0B2FFF77F
:1032100013FC10BD10B504002000C0B2FFF719FC6C
:1032200010BD10B504002000C0B2FFF7B9FB10BDFF
:1032300010B504002000C0B2FFF7D4FB10BD10B5DC
:1032400004002000C0B2FFF7DAFB10BD10B5040087
:103250002000C0B2FFF70DFC10BD10B50400200027
:10326000C0B2FFF72DFC10BD10B504002000C0B2A5
:10327000FFF70CFC10BD10B504002000C0B2FFF732
:1032800012FC10BD88150060841500608C1500606C
:103290006C15006040170060441700601014006057
:1032A000802109060840704710B504002000FFF790
:1032B00087FD10BD10B5040000212000FFF761FD5F
:1032C00010BD10B5040010220021200000F008F904
:1032D00010BD10B5040001212000FFF766FD10BDF0
:1032E00038B505000C0021002800FFF795FD31BD21
:1032F00010B504002000FFF7B8FD10BD10B50400A4
:103300002000FFF7B8FD10BD10B50400012120001A
:10331000FFF740FD10BD38B505000C002100280066
:10332000FFF72CFD31BD10B5040000212000FFF790
:103330004CFD10BD10B5040001212000FFF745FD34
:1033400010BD10B5040001212000FFF71AFD10BDCB
:1033500010B5040001212000FFF743FD10BD38B572
:1033600005000C0021002800FFF759FD31BD10B504
:1033700004002000FFF75BFD10BD10B50400012123
:103380002000FFF766FD10BD10B5040001212000EC
:10339000FFF753FD10BD10B5040001212000FFF719
:1033A0002CFD01212000FFF71CFD10BD38B50500E4
:1033B0000C002003000BFFF78BFB31BD38B5050077
:1033C0000C00002C04D02800C0B2FFF7AAFB03E0D9
:1033D0002800C0B2FFF7B5FB31BD38B504005C2250
:1033E000002107482300DBB25C256B43C01800F0C6
:1033F00077F801212000C0B2FFF7E0FF31BD0000E7
:10340000DC00002038B505000C0021002800C0B207
:10341000FFF746FC31BD38B505000C00210028003F
:10342000C0B2FFF74DFC31BD38B504000D002900D6
:10343000C9B22000C0B2FFF758FC31BD38B5040056
:103440000D002900C9B22000C0B2FFF77BFC31BDDE
:1034500038B504000D002900C9B22000C0B2FFF742
:10346000A0FB31BD10B504002000C0B2FFF789FBFE
:1034700010BD38B505000C0021002800C0B2FFF7D0
:10348000F3FB31BD38B504000D002900C9B220009E
:10349000C0B2FFF7BDFB31BD10B504002000C0B2C3
:1034A000FFF75FFB10BD38B505000C0021002800B8
:1034B000C0B2FFF7C2FB31BD38B504000D002900D2
:1034C000C9B22000C0B2FFF78BFB31BD38B5040094
:1034D0000D002900C9B22000C0B2FFF71AFC31BDAF
:1034E000FEB504000D001600019600952700009A15
:1034F00001993800FEF722FBF7BD7047BE4801680E
:10350000802252020A4302607047BB4801680800EB
:103510008003C00F7047B9490A6870239A43024379
:103520000A607047B6490A68B64B134002061A4350
:103530000A600A6880231B0413430B607047000075
:1035400080B5AD4800688003FBD5AF480168022212
:103550000A430260002100910099062904DA00BFA5
:103560000099491C0091F7E7016804220A430260B0
:1035700001BDA5490A68BB4B134003430B6070476C
:103580009D48016810220A43026070479A4801680A
:103590001022914301607047974801680800800637
:1035A000C00F704796490A6860239A4302430A6035
:1035B0007047914801680422914301607047904927
:1035C0000A681E239A43430013430B600A680123D1
:1035D00013430B607047A4490A6804239A430243CB
:1035E0000A60704788490A68A04B134003430B6088
:1035F000704781480168802292010A430260704747
:103600007D48016808004004C00F70477E490A6881
:10361000E0239A4302430A60704795490A680243CF
:103620000A6070479348016808004007C00F704760
:1036300091490A68914B134003430B6070478E49D0
:103640000A6830239A4302430A6070478C490A682B
:1036500082430A608B490A6882430A60704710B44B
:1036600089490A68894B1340C202E024A40114402E
:103670001C430C600A688023DB0013430B6010BC02
:10368000704710B480490A68D14B13408201F0247E
:10369000A40014401C430C600A68202313430B60F1
:1036A00010BC704772480168744A0A400260704753
:1036B000426830239A430A434260704781B06A49A6
:1036C0000A6802430A60096801400091009901B04C
:1036D0007047C0490A6802430A607047BD490A68DA
:1036E00082430A60704770B504000D001600300078
:1036F000C0B200280FD02000FA218900FEF7C2F9DD
:10370000401E6843B44908600020B44908600520A1
:10371000B349086004E0B2480168012291430160A6
:1037200070BD00B5AE480068C00301D5012000E0BF
:10373000002000BDF8B507000C001600012501228D
:103740003900A8480068FFF7CEFFA047B04205D077
:10375000FFF7E7FF0028F8D0002005000022002135
:103760000020FFF7C0FF2800C0B2F2BDFEB5002068
:103770006946087001229C49C820FFF7DBFF00283A
:1037800002D10120C0B235E02020FFF758FF802091
:103790004001FFF727FF954800689549884211D1FD
:1037A0000F21944804680C400268120957077F0FE4
:1037B0000268120B114001910068000C8506AD0EE5
:1037C000012605E00A241F25082001900126032771
:1037D0002800FFF7A7FE0198FFF7F1FE2000FFF792
:1037E00050FF3800FFF73BFF80204000FFF720FF2D
:1037F00068460078FEBD0000000040489800404840
:103800000C004048FFFFFFC00800404870B500248E
:10381000C0208001FFF71AFF80200002FFF7A9FEF9
:103820006020FFF7BFFEFFF7C4FEFFF7AFFE96264E
:103830007600AE4D002229003000FFF77BFF002804
:1038400001D102200400FFF79BFE01222900300075
:10385000FFF770FF002801D1022004002000C0B251
:1038600070BD0000FF7FFEFF60004048FFEFFFFFDC
:1038700004005048140050481C005048FFFEFFFF51
:10388000280050482C00504894005048FFC7FFFFC4
:10389000F1B582B06846007A00280ED02020FFF7EC
:1038A000B5FE0020FFF797FE0120FFF712FF012071
:1038B000FFF714FF0120FFF701FF4C4800684C4957
:1038C000884215D10F214C4B1868000A084001901E
:1038D0001868000B08401A68120C1140009107226A
:1038E0001968090D11401B681B0E1A40012307E0DF
:1038F00008210191072000910024032211000123D7
:103900007B4D0F242E680F27BE43009F274037436F
:103910002F60784D2F68F026B743BC460701F0268C
:103920003E4067463E432E602E680F27BE43019FF0
:103930003C4034432C60704C25680726B5434E0745
:10394000760F2E43266025683826B543D6003827E3
:1039500037402F4327605524684D2E68FF27BE430C
:1039600026432E60664D2E68FF27BE4366273743E9
:103970002F60644D2E68FF27BE4334432C60624C99
:103980002568FF26B5431D262E4326605F4C25681B
:10399000FF26B54359262E4326605D4C2568FF2639
:1039A000B54332262E4326605A4C256801262E4305
:1039B0002660594C2568FF26B5431F262E432660F6
:1039C000974C2568FF26B54309262E432660F7BD90
:1039D0003FFCFFFF4000404814E000E018E000E03A
:1039E00010E000E06000002025360410F81E0010F2
:1039F000CCECBCFCE41E0010E81E001038B504003E
:103A00000025FFF77BFD01228E496420FFF792FE1F
:103A1000002802D10420C0B266E02000C0B2002815
:103A200050D02000C0B201280AD03ED3032819D0BC
:103A300011D3052824D01CD307282FD027D334E056
:103A400010218148FFF734FE0020FFF7DFFD7548A5
:103A5000754908602AE02020FFF7D8FD73487249B5
:103A6000086023E04020FFF7D1FD71486E490860EF
:103A70001CE06020FFF7CAFD6E486B49086015E046
:103A80008020FFF7C3FD6C48674908600EE0A02066
:103A9000FFF7BCFD69486449086007E0C020FFF7F4
:103AA000B5FD67486049086000E0FEE7FFF7A1FD4B
:103AB00001226649C820FFF73DFE00280AD10520F3
:103AC000C0B211E02020FFF7A1FDFFF739FD5748F4
:103AD00055490860544800685249884203D0002183
:103AE0005948FFF7E5FD002032BD0000993504106C
:103AF0007816006074160060481600604815006073
:103B00005415006068150060881500608415006019
:103B10008C1500606C1500604017006038B505001A
:103B20000C002800C0B2FF2801D100202DE02000A9
:103B3000C0B204280BD02000C0B2052807D0200056
:103B4000C0B2062803D02000C0B2072801D101204E
:103B50001BE02000C0B2032805D12800C0B2002815
:103B600001D1012011E02800C0B2012803D02000BB
:103B7000C0B2032805D10420FFF72DFD0120050068
:103B800002E00020FFF727FD002032BDF8B5070056
:103B90000C002F482F4908602F4908612020FFF7AB
:103BA0003CFDFFF77FFDFFF7E1FD05002800C0B2F7
:103BB000002802D02800C0B231E0FFF727FE06003F
:103BC0003000C0B2002802D03000C0B227E0200090
:103BD000C0B2FF2802D00120FFF75AFE3020FFF7C5
:103BE0009AFC3800C0B2FFF709FF05002800C0B2F8
:103BF000002802D02800C0B211E03900C9B220006C
:103C0000C0B2FFF78BFF06003000C0B2002802D020
:103C10003000C0B203E000F08DF862B60020F2BDC3
:103C2000441700600090D003600000200048E801C5
:103C30000024F40000127A0000093D0080841E0078
:103C400040420F000B3504100010004001360410F4
:103C50000000041008ED00E004000020F0B50200B0
:103C600052B2002A17D418222A4B040064B2A408C6
:103C7000A4001C59FF25C6001640B540AC438D0179
:103C8000EDB2C600324095402543020052B2920880
:103C900092009D501BE00F221F4B182405006DB2AF
:103CA0001540083DAD08AE0005006DB22A40083A47
:103CB000920892009A58FF25C7002740BD40AA43AA
:103CC0008D01EDB2C7003C40A54015439D51F0BDAC
:103CD00000B5BFF34F8F114811490860BFF34F8FF4
:103CE00000BFFDE780B50F48006800280FD10E48DF
:103CF0000068002803D10D480068002807D0012083
:103D00000B49886000F096F8FFF7E2FFFCE701201E
:103D100002BD000000E400E01CED00E00400FA0534
:103D20000CED00E094004048100050483800504826
:103D30000400002080B503210020FFF78FFF03213E
:103D40000120FFF78BFF03210220FFF787FF0321EC
:103D50000320FFF783FF03210720FFF77FFF0321E5
:103D60000820FFF77BFF03210920FFF777FF0321DE
:103D70000A20FFF773FF03210B20FFF76FFF0321DA
:103D80000C20FFF76BFF03210D20FFF767FF0321D6
:103D90000E20FFF763FF03210F20FFF75FFF0321D2
:103DA0001020FFF75BFF03211120FFF757FF0021D1
:103DB0001220FFF753FF03211320FFF74FFF0321CA
:103DC0001420FFF74BFF03211520FFF747FF0321C6
:103DD0001620FFF743FF01211720FFF73FFF0021C7
:103DE0001820FFF73BFF03211920FFF737FF0321BE
:103DF0001A20FFF733FF03211B20FFF72FFF01BD20
:103E0000EFF31482EFF30981002080F31488BFF3ED
:103E10006F8FF0B543464C4655465E466746F8B44C
:103E20000F4CEFF30883636006B4BFF34F8F30BFCE
:103E300000BF00BF0A4C646884F3088882B003BCEA
:103E4000F8BC9846A146AA46B346BC46F0BC04BCA2
:103E500080F3098881F31488BFF36F8F1047000047
:103E60000400002070B504000E00A56861682800F9
:103E7000401C814207D3206846552800401CA060A2
:103E8000E068401CE060A068616888420DD1A268CB
:103E90002168206900F0D1FBA168884203D000208E
:103EA000C043E06001E00020A06070BDF7B584B0C1
:103EB0001F000C9D05980290012401260298069986
:103EC000884206D302980699FDF7DCFD0290761C25
:103ED000F4E7BE4200D23E000D98C0071BD4002D6F
:103EE00019D00D98800705D5002F03D130206946E1
:103EF000087002E0202069460870002D0BD0AE4209
:103F000009D26D1E684601780498FFF7ABFF04984C
:103F1000C0680028F1D50498C06800283CD4022F5E
:103F200001D37F1E08E005982100FDF7ABFD01904D
:103F300001980699884202D306984443EFE7059812
:103F40002100FDF79FFD0190059801996143401AFA
:103F5000059012480199415C0498FFF783FF04988B
:103F6000C068002806D420000699FDF78BFD0400E8
:103F7000002CE4D10D98C0070ED5002D0CD0002DDB
:103F80000AD0AE4208D26D1E20210498FFF76AFFC6
:103F90000498C0680028F2D507B0F0BD049A041058
:103FA000FEB582B007000A9C0298002802D502984C
:103FB000454200E0029D01260398854206DB280069
:103FC0000399FDF75CFD0500761CF5E70498864231
:103FD00001D204980600002C06D00298002802D4D2
:103FE0000B98400700D5641E0B98800702D50498F3
:103FF000002810D00B98C0070DD4002C0BD0002C3B
:1040000009D0A64207D2641E20213800FFF72AFFFC
:10401000F8680028F3D5F868002836D402980028FC
:1040200007D50298414202912D213800FFF71AFF6F
:1040300006E00B98400703D52B213800FFF712FF4D
:10404000F868002821D40B988007800F022810D12F
:10405000049800280DD1002C0BD0002C09D0A642CA
:1040600007D2641E30213800FFF7FCFEF8680028F4
:10407000F3D5F868002808D40B9801900094049BAD
:10408000039A02993800FFF711FF05B0F0BDF5B5AE
:104090009BB00C000AA805904020069000200790D5
:1040A0001B9809900020089020780700641C3800B5
:1040B000C0B2002800D11BE13800C0B2252800D0D2
:1040C0000DE10020050001210291227817003A003D
:1040D000D2B2232A13D02B2A0CD02D2A02D0302A78
:1040E00003D011E00D43641C0FE02A0002251543A4
:1040F000641C0AE02A0004251543641C05E02A001C
:1041000008251543641C00E00290029A002ADCD1C5
:10411000039021780F003900C9B2302903DB390040
:10412000C9B23A2906DB049020780100C9B22E29D1
:1041300020D109E0641C03990A2251433A00D2B20B
:10414000891830390391E4E7641C217808000100E4
:10415000C9B2302903DB0100C9B23A2900DB09E00A
:10416000641C04990A2251430200D2B289183039E2
:104170000491EAE727783800C0B26C2803D03800F1
:10418000C0B2682803D1641C20780700F3E7380028
:10419000C0B2252800D19BE058284ED063280AD011
:1041A00064281CD070287BD073285DD075282DD052
:1041B000782842D091E01C9800681C9908601C98EF
:1041C000006800681C990968091D1C9A116002901A
:1041D000029E3100C9B205A8FFF744FE7DE01C989D
:1041E00000681C9908601C98006800681C990968A0
:1041F000091D1C9A11600290019503980090049B80
:104200000A22029905A8FFF7CBFE66E01C98006819
:104210001C9908601C98006800681C990968091DB1
:104220001C9A11600290019503980090049B0A2249
:10423000029905A8FFF73AFE4FE01C9800681C9908
:1042400008601C98006800681C990968091D1C9A80
:1042500011600290019503980090049B102202992E
:1042600005A8FFF723FE38E01C9800681C99086039
:104270001C98006806681C980068001D1C9908605E
:1042800030780700761C3800C0B2002807D039000B
:10429000C9B205A8FFF7E6FD08980028F0D51CE094
:1042A0001C9800681C9908601C98006800681C999C
:1042B0000968091D1C9A11600290002001900820D5
:1042C000009008231022029905A8FFF7EFFD04E0F3
:1042D000252105A8FFF7C6FDFFE7641C04E03900AF
:1042E000C9B205A8FFF7BEFD0898002800D4DBE698
:1042F000089801280BDB0798002804D0079A0AA920
:104300001B9800F09AF908980799401808900898A7
:104310001DB0F0BD0CB438B505000C0004A8009029
:104320006A4621002800FFF7B2FE01B0029930BCB6
:1043300003B00847F8B55F4CA82500260096270073
:10434000009A29003800FDF7F9FB03202061606125
:104350008D48A0618D49E1618021C9002162A6627A
:104360006662E66220668A4860661020A06626675C
:10437000E6666667102E06D2864871424018C07BFA
:10438000A055761CF6E7F1BDF1B586B00C0015001E
:10439000002001900698C768069800690090009870
:1043A000874203D20098C01B401E05E00698806833
:1043B000C01B00994018401E06998968C91B884295
:1043C00002D306988068C01BA84201D2060000E014
:1043D0002E0006984068C01903900596049403982F
:1043E0000290059A04990298FDF7F0F90298019855
:1043F00080190190A419AD1BBF19069880688742E7
:1044000001D1002007000698C760002DC4D1019893
:1044100007B0F0BDF8B588B004000D001600E068E4
:104420000390A0680399401A0290029886420FD226
:10443000606803994018009005960495009F059ABE
:1044400004993800FDF7C2F903988019E06020E074
:1044500002980190606803994018009001980790B5
:104460000695009F079A06993800FDF7AFF9029864
:10447000301A019060680090019805900298281801
:104480000490009F059A04993800FDF79FF9019860
:10449000E06009B0F0BD00B501000A69CB68934245
:1044A00004D38868401EC01A801801E0D01A401E4C
:1044B00000BD0000BC080020F3B587B014003F4DDC
:1044C000039503980078002801D1FFF733FF079880
:1044D00018214843281860300190089D019806690A
:1044E0000198C068049000270498B04224D2019833
:1044F0008068801BA04201D2009000E000940198E7
:1045000040688019029000980690029805900395E3
:10451000069A05990398FDF759F9039800983F18F2
:1045200000982D180098241A009836180198806871
:10453000864201D1002006000498801BA04201D2CF
:10454000009000E000940098002816D00198406880
:104550008019029000980690029805900395069A9B
:1045600005990398FDF732F9039800983F180098D1
:104570002D180098241A00983618002F01D00198A1
:104580000661380009B0F0BD409A0410BC03002059
:10459000980B0020F0990410F8B507000E001500E4
:1045A000EFF31084012080F310882A0031003800D6
:1045B000FFF782FF84F31088F2BD0000BC080020E2
:1045C000F1B582B00F001500019727480299182213
:1045D00051434018060018367069002803D002289D
:1045E00021D010D326E03000FFF755FF009000984F
:1045F000A84201D2002405E02C002A0001993000D5
:10460000FFF708FF17E03000FFF745FF0090009824
:10461000A84201D2009C00E02C0022000199300049
:10462000FFF7F8FE07E02A0001993000FFF7ACFE23
:10463000040000E000242000FEBDF1B50F001600CC
:10464000094D2878002801D1FFF774FEEFF310849C
:10465000012080F31088320039000098FFF7B0FF86
:1046600084F31088F2BD0000BC080020FFB581B0C3
:1046700004000A9D134E009600980078002801D18E
:10468000FFF758FE032C19D2EFF31081012080F3BD
:10469000108818206043301818300700002C08D00C
:1046A00002983860039878600498B86000203861F8
:1046B000F8607D6181F31088002001E00020C04394
:1046C00005B0F0BDBC0800200268294B13400A0267
:1046D0001A43026070470268254B13400A021A43CE
:1046E00002607047016802220A4302607047416815
:1046F0000800C002C00F7047416808000003C00FE7
:104700007047416808008003C00F70474168080087
:10471000C003C00F70478168802252030A43826041
:1047200070478168802212030A4382607047816863
:10473000802292020A438260704738B50400002547
:104740000F4805600D48056000F00AFA0D490C603D
:10475000082D07DA0848AA008058AA008A181064B1
:104760006D1CF5E70020C043024A1268904731BD36
:10477000FFC0FFFFB80B00209C000020B40B0020FE
:10478000B00B0020E409002070B5B548016801298C
:1047900000D03DE1B34C216800291DD0022921D071
:1047A0001DD3042942D020D306296DD055D3082922
:1047B00000D193E000D27EE00A2900D1BFE000D210
:1047C000A6E00C2900D1EAE000D2D1E00E2900D108
:1047D00006E100D2F5E018E10120206018E1022096
:1047E000206015E10320206012E10020082807DA8C
:1047F0008849820089589C4A8300D150401CF5E7C3
:10480000994D290040312800203000F08FF9042014
:1048100020602A000821954800F0CBF9944B2A002B
:1048200029008020400000F057F9F1E0914D2A0066
:104830000821FA20400000F0BCF9052020608A4CD5
:10484000220008218C4800F0B4F9894B2A0021008D
:104850008020400000F040F9DAE0994A0821FA206F
:10486000400000F0A6F9062020607F4C22000821BD
:10487000A920800000F09DF97D4B220021008020BE
:10488000400000F029F9C3E08E4D2A000821FA20EB
:10489000400000F08EF907202060734C22000821B0
:1048A000894800F086F9724B2A00210080204000E0
:1048B00000F012F9ACE06F4D2E0060363200082196
:1048C000FA20400000F075F908202060320029002D
:1048D00020318020400000F0D1F899E009202060CC
:1048E000FA20400000F072F9002803D07748FFF763
:1048F00024FF0CE05C4C220008215C4800F059F9D0
:104900005B4B5C4A21008020400000F0E5F87FE02E
:104910006F4D2A000821FA20400000F04AF90A20D1
:104920002060514C220008216A4800F042F9504BA7
:104930002A0021008020400000F0CEF868E04D4DB4
:104940002A000821FA20400000F033F90B202060F3
:10495000454C22000821A920800000F02AF9444B90
:104960002A00403221008020400000F0B5F84FE0DE
:10497000534D2A000821FA20400000F01AF90C20BB
:104980002060394C22000821674800F012F9384BAA
:104990002A0021008020400000F09EF838E0354DCC
:1049A0002E00403632000821FA20400000F001F9C4
:1049B0000D202060320029008020400000F05EF8C9
:1049C00026E0FA20400000F001F9002803D06048FA
:1049D000FFF7B3FE03E00E202060FFF7D5FE17E0DF
:1049E00000250560256000F0BBF8082D07DA0948AE
:1049F000A90040581C49AA0088506D1CF5E71A49C7
:104A00000020544A1268904702E0A020FFF795FE6C
:104A100070BD00009C00002010B54F4C2000FFF737
:104A20006BFE012805D12000FFF77BFEB120FFF7C8
:104A300084FE2000FFF75BFE012805D12000FFF770
:104A40006AFEB220FFF779FE2000FFF75AFE012828
:104A500004D12000FFF76BFEFFF796FE10BD0000AB
:104A6000B00B0020B40B0020E4090020E30200009A
:104A700054990410640900207A020000F8B5070078
:104A80000E001500344C0C212000FFF724FE3900E5
:104A9000012000F07BF832000821FF202E3000F0CA
:104AA00079F82A000821FF20923000F073F82000E6
:104AB000FFF72CFE0028FAD12000FFF713FEF1BD0E
:104AC00084090020A4090020B902000008FF0000AA
:104AD000C40900208F020000F8B507000E00150081
:104AE0001D4C10212000FFF7EFFD3900012000F0E0
:104AF0004DF832000821FF202E3000F04BF82A003C
:104B00000821FF20923000F045F8009A0821134850
:104B100000F040F82000FFF7F9FD0028FAD120004E
:104B2000FFF7E0FDF1BD0000CE02000038B5050042
:104B30000C00002D04D02A000821572000F039F87D
:104B4000002C04D0220008216C2000F032F831BD86
:104B50000DFF0000B80B0020000030485702000095
:104B600000B50020EFF3108172B6074A1368032BDB
:104B700003D00122D243100001E00123136081F32E
:104B8000108840B200BD00005C000020124A830083
:104B9000D150704710B5104B84001B19012905DB5B
:104BA00014681C60121D1B1D491EF7E700241C60C1
:104BB00010BD10B5084B84001B19012905DB1C68CA
:104BC00014601B1D121D491EF7E710BD024980002D
:104BD000085870470000000000043048F0B502009B
:104BE00052B2002A17D41822B04B040064B2A408B1
:104BF000A4001C59FF25C6001640B540AC438D01EA
:104C0000EDB2C600324095402543020052B29208F0
:104C100092009D501BE00F22C14B182405006DB27D
:104C20001540083DAD08AE0005006DB22A40083AB7
:104C3000920892009A58FF25C7002740BD40AA431A
:104C40008D01EDB2C7003C40A54015439D51F0BD1C
:104C5000B4480168802252020A4302607047B1489A
:104C60000168C04A0A4002607047AF490A68BE4BFB
:104C7000134002021A430A600A68802313430B6040
:104C80007047BA4A13689B019B0903430B431360A7
:104C9000704781B0B6490A6802430A60096801405A
:104CA0000091009901B0704780B500210220FEF705
:104CB0006DFF002800D0FEE700F02EF8AD48006838
:104CC00000F08BF900F0C4F900F02DF800F02EF997
:104CD00000F03CF80020009000230022002100207A
:104CE000FFF7C4FCA44AA5490020FFF713FB00F01E
:104CF0004DF800F079F8A248006800F01FF900F0C4
:104D000003F800F0ACF8FAE780B5FDF7BBF900F066
:104D1000DDF9FCF7F8FB01BD80B501210020C0439F
:104D2000FFF75CFF01BD80B5012000F067FA0020AD
:104D300000F064FA022000F061FA0121002000F086
:104D4000F5FB0121012000F0F1FB01BD80B586B02B
:104D5000182200216846FCF718FF0420FFF799FF8E
:104D6000802000010090022001900290002003901A
:104D70000490059069469020C00500F030FD0021A8
:104D800080204005FFF77DFF07B000BD10B58CB057
:104D900002A87C492822FCF7FFFCA020C002FFF7F4
:104DA00078FFFEF789F8784803C86A4603C2083AD4
:104DB0006846FDF7FFF8FCF759FD00F078FD002884
:104DC00000D0FEE700F0BDFD02A800F043FE0400A5
:104DD0002000C0B2002805D02100C9B26B4800F005
:104DE00067F8FEE70CB010BD30B587B005A868497C
:104DF0000CC90CC00839083805AA0621002000F0AB
:104E000051FE1821002000F051FE04002000C0B225
:104E1000002805D02100C9B25E4800F049F8FEE73D
:104E200003A8029003A8801C019004A8009000230E
:104E300008220021022000F03DFE05002800C0B23B
:104E4000002805D02900C9B2534800F031F804E029
:104E50002900C9B2514800F02BF807B030BD1CB58D
:104E6000012269460020FFF797FB0400002C1CD0AC
:104E700068460078312802D032280BD015E040482F
:104E800001683F2902D20168491C0160006800F0F6
:104E900055F80AE03A480168002902D00168491E25
:104EA0000160006800F04AF8FFE713BD00E400E08D
:104EB000704738B53A4D2878002815D100210020D8
:104EC00000F032FE04002000C0B2002805D021000E
:104ED000C9B23448FFF7ECFF06E02100C9B23248FE
:104EE000FFF7E6FF0120287031BD38B52C4D28783A
:104EF000012813D100F070FE04002000C0B2002889
:104F000005D02100C9B22948FFF7D2FF06E02100F1
:104F1000C9B22748FFF7CCFF0020287031BD000040
:104F20001CED00E0000040489800404880B5FFF7C5
:104F30008FFE01BD80B5FFF792FE01BD10B50400E4
:104F4000FFF7D3FFFFF7F6FF2000FFF78EFEFFF716
:104F5000EDFFFFF7AEFF220016490020FFF7DAF958
:104F600010BD0000FFFFFEFFFFC0FFFF080040482C
:104F70005000404860000020789A041014990410F2
:104F800030000020CC970410809A0410449804103C
:104F9000889A041024970410689804103499041017
:104FA000CE0B0020549704108C9804107C970410AA
:104FB000B0980410A497041030B504000D00200030
:104FC0002900FCF75FFD401E0849086000200849E1
:104FD000086007200749086030BD10B50400FA21B9
:104FE00089002000FFF7E8FF10BD000014E000E09A
:104FF00018E000E010E000E011490A6882430A600E
:1050000010490A6802430A6070470E490A688243E1
:105010000A600B490A6802430A6070470A490A6835
:1050200082430A6009490A6802430A6070470749D7
:105030000A6882430A6004490A6802430A607047AA
:1050400024005048200050482C0050482800504868
:1050500080B50120FFF7D0FF0220FFF7CDFF04202D
:10506000FFF7D3FF0820FFF7C7FF80204000FFF7BE
:10507000CCFF80208000FFF7C8FF8020C000FFF732
:10508000C4FF80200001FFF7C0FF0120FFF7CFFF22
:105090000220FFF7C3FF0420FFF7C0FF0820FFF73F
:1050A000C6FF1020FFF7BAFF2020FFF7C0FF402007
:1050B000FFF7BDFF8020FFF7B1FF8020C001FFF7A1
:1050C000B6FF80200002FFF7A9FF01BD10B500F078
:1050D00097FD10BD81B07C490A6802430A600968E7
:1050E00001400091009901B0704778490A688243F5
:1050F0000A6077490A6802430A60704774490A687F
:1051000082430A6071490A6802430A607047704925
:105110000A6882430A606D490A6882430A607047E0
:105120006C490A6882430A606B490A6802430A6054
:10513000704769490A6882430A6066490A680243FF
:105140000A60704764490A6882430A6061490A68D4
:1051500082430A60704730B403680C004C43032557
:105160006C43A3430C004C4354431C43046030BCC9
:10517000704710B443688B430C0054431C43446095
:1051800010BC704730B483680C004C4303256C435B
:10519000A3430C004C4354431C43846030BC704711
:1051A00070B504000D0016009020C005844211D196
:1051B000002E03D0022E09D004D31CE02800FFF7F4
:1051C000A6FF18E02800FFF790FF14E02800FFF783
:1051D00095FF10E0002E03D0022E09D004D30AE080
:1051E0002800FFF7AFFF06E02800FFF799FF02E075
:1051F0002800FFF79EFF70BD8161704738B505003C
:105200002800C0B200281CD10820FFF763FF334CF0
:1052100002212000FFF7F0FF012202212000FFF70A
:105220009AFF022202212000FFF7ACFF0022022198
:105230002000FFF79EFF002202212000FFF7B0FFB1
:1052400040E02800C0B201281CD10820FFF742FF2F
:10525000224C10212000FFF7CFFF01221021200057
:10526000FFF779FF022210212000FFF78BFF0022B9
:1052700010212000FFF77DFF002210212000FFF702
:105280008FFF1FE02800C0B202281BD10820FFF7C3
:1052900021FF124C04212000FFF7AEFF0122042160
:1052A0002000FFF758FF022204212000FFF76AFFC9
:1052B000002204212000FFF75CFF002204212000CF
:1052C000FFF76EFF31BD00005000404824005048F9
:1052D000200050482C00504828005048000010483A
:1052E00000B5010049B2002905D40121C206D20E41
:1052F00091406F4A116000BDF0B5020052B2002A21
:1053000017D418226B4B040064B2A408A4001C59E3
:10531000FF25C6001640B540AC438D01EDB2C60076
:10532000324095402543020052B2920892009D50AF
:105330001BE00F22AF4B182405006DB21540083D4D
:10534000AD08AE0005006DB22A40083A92089200FE
:105350009A58FF25C7002740BD40AA438D01EDB2F2
:10536000C7003C40A54015439D51F0BD81B0A24906
:105370000A6802430A60096801400091009901B07F
:10538000704781B09D490A6802430A60096801407C
:105390000091009901B0704799490A6802430A6078
:1053A000704700B50200D2B2032A08D1954A1368AB
:1053B0000B431360944A13688B43136032E002007E
:1053C000D2B2012A08D18F4A13688B4313608E4AE8
:1053D00013680B43136025E00200D2B2022A08D101
:1053E000884A13688B431360874A13688B431360A2
:1053F00018E00200D2B2042A08D1824A13688B4313
:105400001360814A13688B4313600BE00200D2B231
:10541000052A07D17B4A13688B4313607A4A1368C5
:105420000B43136000BD00B5784909680140814213
:1054300001D1012000E0002000BD744908607047E0
:1054400073490A6882430A6072490A6802430A6023
:10545000704770490A6882430A606D490A680243CE
:105460000A6070476B490A6882430A6068490A68A3
:1054700082430A60704768490A6882430A60674944
:105480000A6802430A60704764490A6882430A60F6
:1054900061490A6802430A60704760490A688243AA
:1054A0000A605D490A6882430A6070470000000094
:1054B00000E100E000E400E030B403680C004C437D
:1054C00003256C43A3430C004C4354431C4304602A
:1054D00030BC704770B504000D0016009020C00568
:1054E000844211D1002E03D0022E09D004D31CE037
:1054F0002800FFF7B7FF18E02800FFF7A1FF14E02E
:105500002800FFF7A6FF10E0002E03D0022E09D0DE
:1055100004D30AE02800FFF7C0FF06E02800FFF7E9
:10552000AAFF02E02800FFF7AFFF70BDF8B5060044
:105530000F003000C0B2002811D10420FFF716FF81
:105540009024E4058025ED00002229002000FFF7CB
:10555000B3FF002229002000FFF7BCFF11E030005C
:10556000C0B201280DD10820FFF700FF2C4C00220B
:1055700020212000FFF7A0FF002220212000FFF7BC
:10558000A9FF3800C0B2012832D180204000FFF7C7
:10559000F8FE3000C0B2002813D18024E4002100BE
:1055A0000120FFF7FEFE2000FFF747FF2000FFF776
:1055B000F3FE03210F20FFF79FFE0F20FFF790FE61
:1055C00016E03000C0B2012812D18024A4032100CB
:1055D0000120FFF7E6FE2000FFF72FFF2000FFF776
:1055E000DBFE03211020FFF787FE1020FFF778FE77
:1055F000F1BD00001CED00E0500040485400404860
:105600001800004010000040140000401C00004042
:1056100024005048200050482C0050482800504892
:105620000000104838B5050000242800C0B200284A
:1056300005D18020C000FFF7F6FE040008E0280036
:10564000C0B2012804D180208003FFF7ECFE0400E3
:10565000200032BD10B504002000C0B2002804D1E3
:105660008020C000FFF7E9FE07E02000C0B201285B
:1056700003D180208003FFF7E0FE10BD79490A685E
:1056800082430A6078490A6802430A607047764993
:105690000A6882430A6073490A6802430A607047D5
:1056A00071490A6882430A606E490A6882430A6047
:1056B00070476E490A6882430A606D490A6802436E
:1056C0000A6070476A490A6882430A6067490A6843
:1056D00002430A60704766490A6882430A60634968
:1056E0000A6882430A60704730B403680C004C4378
:1056F00003256C43A3430C004C4354431C430460F8
:1057000030BC704710B443688B430C0054431C43B7
:10571000446010BC704730B483680C004C430325D0
:105720006C43A3430C004C4354431C43846030BC83
:10573000704770B504000D0016009020C00584422B
:1057400011D1002E03D0022E09D004D31CE0280072
:10575000FFF7A6FF18E02800FFF790FF14E02800ED
:10576000FFF795FF10E0002E03D0022E09D004D3DE
:105770000AE02800FFF7AFFF06E02800FFF799FFD7
:1057800002E02800FFF79EFF70BD30B4036A0C00F2
:105790004C434C434C430F256C43A3430C004C43F8
:1057A0004C434C4354431C43046230BC704730B4F8
:1057B000446A0B0A0D0A6B430D0A6B430D0A6B43D7
:1057C0000F256B439C430B0A0D0A6B430D0A6B4379
:1057D0000D0A6B4353432343436230BC7047F8B513
:1057E00006000C0000252068E84000282DD0206825
:1057F0000121A94001400F00002F24D06068022839
:105800000CD1FF2F05D8626939003000FFF7BDFFCA
:1058100004E0626939003000FFF7C9FF62683900AF
:105820003000FFF761FF6068012802D0606802283D
:1058300004D1A26839003000FFF76DFF22693900FA
:105840003000FFF776FF6D1CCDE76068012802D0BD
:105850006068022804D1E26821683000FFF752FF37
:105860000020F2BD24005048200050482C00504831
:105870002800504801680422914301607047416844
:105880000800C007C00F7047416808004007C00FFC
:105890007047806880B2704781B018490A68024337
:1058A0000A60096801400091009901B0704710B585
:1058B0008020C002FFF7F0FF114C2000FFF7DAFF55
:1058C0002000FFF7DCFF0028FAD02000FFF7DCFF04
:1058D000002801D0012000E0002010BD70B50500B7
:1058E0000C00074E3000FFF7CAFF0028F9D0300047
:1058F000FFF7CFFF2860002070BD00005000404837
:105900000000604881B032490A6802430A600968B1
:1059100001400091009901B0704700B52C49096819
:105920000140814201D1012000E0002000BD294951
:105930000A6802430A60704726490A6882430A607F
:10594000704780B50120FFF7E8FF002808D101204B
:10595000FFF7EDFF0120FFF7EFFF0120FFF7D2FF78
:10596000002002BDF8B504000F0015001A4E68466D
:1059700000783070386819490860786818490860FC
:10598000B86818490860F86817490860206817491E
:105990000860606816490860A06816490860E068F9
:1059A0001549086000F032F814480068286014486F
:1059B0000068686013480068A86013480068E860E1
:1059C0003078694609788842D0D10020F2BD0000C5
:1059D0006000404840004048CC0B00202800006098
:1059E0002C0000603000006034000060380000606F
:1059F0003C0000604000006044000060480000601F
:105A00004C00006050000060540000601CB5642031
:105A100069460870C024E405200000F011F86846CB
:105A20000078401E69460870200000F00EF800283B
:105A300003D0684600780028F1D16846007816BD8A
:105A4000816D01220A4382657047C16D0800C0075D
:105A5000C00F704710B5C17A002480290CD8418B43
:105A6000172909D301229202914205D8C189172929
:105A700002D3121F914201D982240EE0014628224E
:105A8000074800F0F9F800F04FF9054949688142EC
:105A900001D5872401E000F067FA204610BD000020
:105AA000F80A002010B500F0AFFA10BD10B500F0F4
:105AB00083FB10BDFFB583B00D9F0E9E9C460D4627
:105AC00004000BD0A00703D1600701D4200705D53F
:105AD000002D06D0012D04D0022D02D0822007B067
